{
  "contractName": "Election",
  "abi": [
    {
      "constant": true,
      "inputs": [
        {
          "name": "",
          "type": "uint256"
        }
      ],
      "name": "candidates",
      "outputs": [
        {
          "name": "id",
          "type": "uint256"
        },
        {
          "name": "name",
          "type": "string"
        },
        {
          "name": "voteCount",
          "type": "uint256"
        }
      ],
      "payable": false,
      "stateMutability": "view",
      "type": "function"
    },
    {
      "inputs": [],
      "payable": false,
      "stateMutability": "view",
      "type": "function",
      "constant": true,
      "name": "candidateCount",
      "outputs": [
        {
          "name": "",
          "type": "uint256"
        }
      ]
    },
    {
      "inputs": [],
      "payable": false,
      "stateMutability": "nonpayable",
      "type": "constructor"
    }
  ],
  "bytecode": "0x608060405234801561001057600080fd5b5061005e6040805190810160405280600481526020017f4d6f6469000000000000000000000000000000000000000000000000000000008152506100b0640100000000026401000000009004565b6100ab6040805190810160405280600581526020017f526168756c0000000000000000000000000000000000000000000000000000008152506100b0640100000000026401000000009004565b6101d1565b60016000815480929190600101919050555060606040519081016040528060015481526020018281526020016000815250600080600154815260200190815260200160002060008201518160000155602082015181600101908051906020019061011b92919061012c565b506040820151816002015590505050565b828054600181600116156101000203166002900490600052602060002090601f016020900481019282601f1061016d57805160ff191683800117855561019b565b8280016001018555821561019b579182015b8281111561019a57825182559160200191906001019061017f565b5b5090506101a891906101ac565b5090565b6101ce91905b808211156101ca5760008160009055506001016101b2565b5090565b90565b610232806101e06000396000f3fe60806040526004361061004c576000357c0100000000000000000000000000000000000000000000000000000000900463ffffffff1680633477ee2e14610051578063a9a981a314610113575b600080fd5b34801561005d57600080fd5b5061008a6004803603602081101561007457600080fd5b810190808035906020019092919050505061013e565b6040518084815260200180602001838152602001828103825284818151815260200191508051906020019080838360005b838110156100d65780820151818401526020810190506100bb565b50505050905090810190601f1680156101035780820380516001836020036101000a031916815260200191505b5094505050505060405180910390f35b34801561011f57600080fd5b50610128610200565b6040518082815260200191505060405180910390f35b6000602052806000526040600020600091509050806000015490806001018054600181600116156101000203166002900480601f0160208091040260200160405190810160405280929190818152602001828054600181600116156101000203166002900480156101f05780601f106101c5576101008083540402835291602001916101f0565b820191906000526020600020905b8154815290600101906020018083116101d357829003601f168201915b5050505050908060020154905083565b6001548156fea165627a7a7230582011f687c414cafc35159addf7667b5c03cee7a4e69196b77b6e4ef3c045f96d2e0029",
  "source": "pragma solidity^ 0.5.0;\n\ncontract Election {\n    struct Candidate {\n        uint id;\n        string name;\n        uint voteCount;\n    }\n\n    mapping(uint=>Candidate) public candidates;\n\n    uint public candidateCount;\n\n    constructor() public{\n        addCandidate(\"Modi\");\n        addCandidate(\"Rahul\");\n    }\n\n    function addCandidate(string memory _name) private{\n        candidateCount++;\n        candidates[candidateCount] = Candidate(candidateCount,_name,0);\n    }\n\n}",
  "sourcePath": "D:/projects/election/contracts/Election.sol",
  "compiler": {
    "name": "solc",
    "version": "0.5.0+commit.1d4f565a.Emscripten.clang"
  },
  "schemaVersion": "3.0.9",
  "updatedAt": "2019-05-23T05:41:16.309Z",
  "devdoc": {
    "methods": {}
  },
  "userdoc": {
    "methods": {}
  }
}